{
  "contractName": "CampaignFactory",
  "abi": [
    {
      "inputs": [],
      "stateMutability": "nonpayable",
      "type": "constructor"
    },
    {
      "anonymous": false,
      "inputs": [
        {
          "indexed": false,
          "internalType": "address",
          "name": "_address",
          "type": "address"
        }
      ],
      "name": "Clonecreated",
      "type": "event"
    },
    {
      "inputs": [
        {
          "internalType": "uint256",
          "name": "",
          "type": "uint256"
        }
      ],
      "name": "cloneAddress",
      "outputs": [
        {
          "internalType": "address",
          "name": "",
          "type": "address"
        }
      ],
      "stateMutability": "view",
      "type": "function",
      "constant": true
    },
    {
      "inputs": [],
      "name": "implementationContract",
      "outputs": [
        {
          "internalType": "address",
          "name": "",
          "type": "address"
        }
      ],
      "stateMutability": "view",
      "type": "function",
      "constant": true
    },
    {
      "inputs": [],
      "name": "getCloneAddrs",
      "outputs": [
        {
          "internalType": "address[]",
          "name": "",
          "type": "address[]"
        }
      ],
      "stateMutability": "view",
      "type": "function",
      "constant": true
    },
    {
      "inputs": [
        {
          "internalType": "uint256",
          "name": "_matchId",
          "type": "uint256"
        },
        {
          "internalType": "uint256",
          "name": "_teamId0",
          "type": "uint256"
        },
        {
          "internalType": "uint256",
          "name": "_teamId1",
          "type": "uint256"
        },
        {
          "internalType": "uint256",
          "name": "_initialOdds0",
          "type": "uint256"
        },
        {
          "internalType": "uint256",
          "name": "_initialOdds1",
          "type": "uint256"
        }
      ],
      "name": "createCampaign",
      "outputs": [
        {
          "internalType": "address",
          "name": "",
          "type": "address"
        }
      ],
      "stateMutability": "nonpayable",
      "type": "function"
    }
  ],
  "bytecode": "0x60a060405234801561001057600080fd5b5060405161001d90610072565b604051809103906000f080158015610039573d6000803e3d6000fd5b5073ffffffffffffffffffffffffffffffffffffffff1660808173ffffffffffffffffffffffffffffffffffffffff168152505061007f565b610d0e806107e083390190565b60805161073f6100a16000396000818161017d01526101e6015261073f6000f3fe608060405234801561001057600080fd5b506004361061004c5760003560e01c8063370bed3c1461005157806399e7d0561461006f578063d8e0a2531461008d578063e5e7192e146100bd575b600080fd5b6100596100ed565b60405161006691906104ed565b60405180910390f35b61007761017b565b604051610084919061051e565b60405180910390f35b6100a760048036038101906100a29190610574565b61019f565b6040516100b4919061051e565b60405180910390f35b6100d760048036038101906100d291906105a1565b6101de565b6040516100e4919061051e565b60405180910390f35b6060600080548060200260200160405190810160405280929190818152602001828054801561017157602002820191906000526020600020905b8160009054906101000a900473ffffffffffffffffffffffffffffffffffffffff1673ffffffffffffffffffffffffffffffffffffffff1681526020019060010190808311610127575b5050505050905090565b7f000000000000000000000000000000000000000000000000000000000000000081565b600081815481106101af57600080fd5b906000526020600020016000915054906101000a900473ffffffffffffffffffffffffffffffffffffffff1681565b60008061020a7f0000000000000000000000000000000000000000000000000000000000000000610328565b90508073ffffffffffffffffffffffffffffffffffffffff1663427a61ba8888888888336040518763ffffffff1660e01b815260040161024f9695949392919061062b565b600060405180830381600087803b15801561026957600080fd5b505af115801561027d573d6000803e3d6000fd5b505050506000819080600181540180825580915050600190039060005260206000200160009091909190916101000a81548173ffffffffffffffffffffffffffffffffffffffff021916908373ffffffffffffffffffffffffffffffffffffffff1602179055507fdfd43b5d9196bcda72f7675dc1cb30b85016c18c5d2bc875fd0c11d2412e81a481604051610313919061051e565b60405180910390a18091505095945050505050565b60006040517f3d602d80600a3d3981f3363d3d373d3d3d363d7300000000000000000000000081528260601b60148201527f5af43d82803e903d91602b57fd5bf3000000000000000000000000000000000060288201526037816000f0915050600073ffffffffffffffffffffffffffffffffffffffff168173ffffffffffffffffffffffffffffffffffffffff1614156103f8576040517f08c379a00000000000000000000000000000000000000000000000000000000081526004016103ef906106e9565b60405180910390fd5b919050565b600081519050919050565b600082825260208201905092915050565b6000819050602082019050919050565b600073ffffffffffffffffffffffffffffffffffffffff82169050919050565b600061045482610429565b9050919050565b61046481610449565b82525050565b6000610476838361045b565b60208301905092915050565b6000602082019050919050565b600061049a826103fd565b6104a48185610408565b93506104af83610419565b8060005b838110156104e05781516104c7888261046a565b97506104d283610482565b9250506001810190506104b3565b5085935050505092915050565b60006020820190508181036000830152610507818461048f565b905092915050565b61051881610449565b82525050565b6000602082019050610533600083018461050f565b92915050565b600080fd5b6000819050919050565b6105518161053e565b811461055c57600080fd5b50565b60008135905061056e81610548565b92915050565b60006020828403121561058a57610589610539565b5b60006105988482850161055f565b91505092915050565b600080600080600060a086880312156105bd576105bc610539565b5b60006105cb8882890161055f565b95505060206105dc8882890161055f565b94505060406105ed8882890161055f565b93505060606105fe8882890161055f565b925050608061060f8882890161055f565b9150509295509295909350565b6106258161053e565b82525050565b600060c082019050610640600083018961061c565b61064d602083018861061c565b61065a604083018761061c565b610667606083018661061c565b610674608083018561061c565b61068160a083018461050f565b979650505050505050565b600082825260208201905092915050565b7f455243313136373a20637265617465206661696c656400000000000000000000600082015250565b60006106d360168361068c565b91506106de8261069d565b602082019050919050565b60006020820190508181036000830152610702816106c6565b905091905056fea26469706673582212207489e73bbb8afc68dd589033b333ff0f76d2d1a3fe523f8f196a8f731778b17264736f6c63430008090033608060405234801561001057600080fd5b50610cee806100206000396000f3fe60806040526004361061008a5760003560e01c806371dba98d1161005957806371dba98d146101095780637a7aee0214610134578063802607381461015f578063853f9a271461018a57806399892e47146101b557610091565b8063427a61ba14610096578063454a2ab3146100bf5780634e71d92d146100db5780636032f4a6146100f257610091565b3661009157005b600080fd5b3480156100a257600080fd5b506100bd60048036038101906100b8919061077e565b6101e0565b005b6100d960048036038101906100d4919061080b565b61024b565b005b3480156100e757600080fd5b506100f06103f6565b005b3480156100fe57600080fd5b506101076106a2565b005b34801561011557600080fd5b5061011e6106c7565b60405161012b9190610847565b60405180910390f35b34801561014057600080fd5b506101496106cd565b6040516101569190610847565b60405180910390f35b34801561016b57600080fd5b506101746106d3565b6040516101819190610847565b60405180910390f35b34801561019657600080fd5b5061019f6106d9565b6040516101ac9190610847565b60405180910390f35b3480156101c157600080fd5b506101ca6106df565b6040516101d79190610847565b60405180910390f35b806000806101000a81548173ffffffffffffffffffffffffffffffffffffffff021916908373ffffffffffffffffffffffffffffffffffffffff1602179055508560018190555084600281905550836003819055508260048190555081600581905550505050505050565b60025481148061025c575060035481145b61029b576040517f08c379a0000000000000000000000000000000000000000000000000000000008152600401610292906108e5565b60405180910390fd5b600034116102de576040517f08c379a00000000000000000000000000000000000000000000000000000000081526004016102d590610951565b60405180910390fd5b600660003373ffffffffffffffffffffffffffffffffffffffff1673ffffffffffffffffffffffffffffffffffffffff1681526020019081526020016000206000016040518060600160405280600254841461033c57600554610340565b6004545b815260200134815260200183815250908060018154018082558091505060019003906000526020600020906003020160009091909190915060008201518160000155602082015181600101556040820151816002015550506001600660003373ffffffffffffffffffffffffffffffffffffffff1673ffffffffffffffffffffffffffffffffffffffff16815260200190815260200160002060010160006101000a81548160ff02191690831515021790555050565b6000339050600660008273ffffffffffffffffffffffffffffffffffffffff1673ffffffffffffffffffffffffffffffffffffffff16815260200190815260200160002060010160009054906101000a900460ff1661048a576040517f08c379a0000000000000000000000000000000000000000000000000000000008152600401610481906109bd565b60405180910390fd5b600860009054906101000a900460ff166104d9576040517f08c379a00000000000000000000000000000000000000000000000000000000081526004016104d090610a4f565b60405180910390fd5b6000805b600660008473ffffffffffffffffffffffffffffffffffffffff1673ffffffffffffffffffffffffffffffffffffffff16815260200190815260200160002060000180549050811015610609576000600660008573ffffffffffffffffffffffffffffffffffffffff1673ffffffffffffffffffffffffffffffffffffffff16815260200190815260200160002060000182815481106105805761057f610a6f565b5b906000526020600020906003020160405180606001604052908160008201548152602001600182015481526020016002820154815250509050600754816040015114156105f5576064816020015182600001516105dd9190610acd565b6105e79190610b56565b836105f29190610b87565b92505b50808061060190610bdd565b9150506104dd565b508047101561064d576040517f08c379a000000000000000000000000000000000000000000000000000000000815260040161064490610c98565b60405180910390fd5b600081111561069e578173ffffffffffffffffffffffffffffffffffffffff166108fc829081150290604051600060405180830381858888f1935050505015801561069c573d6000803e3d6000fd5b505b5050565b60016007819055506001600860006101000a81548160ff021916908315150217905550565b60035481565b60055481565b60025481565b60045481565b60015481565b600080fd5b6000819050919050565b6106fd816106ea565b811461070857600080fd5b50565b60008135905061071a816106f4565b92915050565b600073ffffffffffffffffffffffffffffffffffffffff82169050919050565b600061074b82610720565b9050919050565b61075b81610740565b811461076657600080fd5b50565b60008135905061077881610752565b92915050565b60008060008060008060c0878903121561079b5761079a6106e5565b5b60006107a989828a0161070b565b96505060206107ba89828a0161070b565b95505060406107cb89828a0161070b565b94505060606107dc89828a0161070b565b93505060806107ed89828a0161070b565b92505060a06107fe89828a01610769565b9150509295509295509295565b600060208284031215610821576108206106e5565b5b600061082f8482850161070b565b91505092915050565b610841816106ea565b82525050565b600060208201905061085c6000830184610838565b92915050565b600082825260208201905092915050565b7f63616e206f6e6c792062696420666f72207465616d20696e766f6c766564206960008201527f6e2074686973206d617463680000000000000000000000000000000000000000602082015250565b60006108cf602c83610862565b91506108da82610873565b604082019050919050565b600060208201905081810360008301526108fe816108c2565b9050919050565b7f63616e277420626964203020616d6f756e740000000000000000000000000000600082015250565b600061093b601283610862565b915061094682610905565b602082019050919050565b6000602082019050818103600083015261096a8161092e565b9050919050565b7f63616e277420636c61696d206966206e6f7420626964646564206265666f7265600082015250565b60006109a7602083610862565b91506109b282610971565b602082019050919050565b600060208201905081810360008301526109d68161099a565b9050919050565b7f63616e277420636c61696d206265666f726520726573756c742069732066756c60008201527f66696c6c65642066726f6d206f7261636c650000000000000000000000000000602082015250565b6000610a39603283610862565b9150610a44826109dd565b604082019050919050565b60006020820190508181036000830152610a6881610a2c565b9050919050565b7f4e487b7100000000000000000000000000000000000000000000000000000000600052603260045260246000fd5b7f4e487b7100000000000000000000000000000000000000000000000000000000600052601160045260246000fd5b6000610ad8826106ea565b9150610ae3836106ea565b9250817fffffffffffffffffffffffffffffffffffffffffffffffffffffffffffffffff0483118215151615610b1c57610b1b610a9e565b5b828202905092915050565b7f4e487b7100000000000000000000000000000000000000000000000000000000600052601260045260246000fd5b6000610b61826106ea565b9150610b6c836106ea565b925082610b7c57610b7b610b27565b5b828204905092915050565b6000610b92826106ea565b9150610b9d836106ea565b9250827fffffffffffffffffffffffffffffffffffffffffffffffffffffffffffffffff03821115610bd257610bd1610a9e565b5b828201905092915050565b6000610be8826106ea565b91507fffffffffffffffffffffffffffffffffffffffffffffffffffffffffffffffff821415610c1b57610c1a610a9e565b5b600182019050919050565b7f6e6f7420656e6f7567682062616c616e636520696e2074686520636f6e74726160008201527f637420746f206d616b6520746865207472616e73666572000000000000000000602082015250565b6000610c82603783610862565b9150610c8d82610c26565b604082019050919050565b60006020820190508181036000830152610cb181610c75565b905091905056fea2646970667358221220648b7189ffeeff46ef395727e03761d3608fc0685d5b5f9a5294060c85bc590764736f6c63430008090033",
  "immutableReferences": {
    "336": [
      {
        "length": 32,
        "start": 381
      },
      {
        "length": 32,
        "start": 486
      }
    ]
  },
  "source": "// SPDX-License-Identifier: MIT\npragma solidity >=0.4.22 <0.9.0;\n\nimport \"./Campaign.sol\";\nimport \"@openzeppelin/contracts/proxy/Clones.sol\";\n\ncontract CampaignFactory {\n    address public immutable implementationContract;\n    address[] public cloneAddress; \n\n    event Clonecreated(address _address);\n\n    constructor() {\n        implementationContract = address(new Campaign());\n    }\n\n    function getCloneAddrs() external view returns (address[] memory) {\n        return cloneAddress;\n    }\n\n    function createCampaign(\n        uint256 _matchId,\n        uint256 _teamId0,\n        uint256 _teamId1,\n        uint256 _initialOdds0,\n        uint256 _initialOdds1\n    ) external returns (address) {\n        address clone = Clones.clone(implementationContract);\n        Campaign(payable(clone)).initialize(\n            _matchId,\n            _teamId0,\n            _teamId1,\n            _initialOdds0,\n            _initialOdds1,\n            msg.sender\n        );\n        cloneAddress.push(clone);\n        emit Clonecreated(clone);\n        return clone;\n    }\n}\n",
  "sourcePath": "/Users/rodrigotaipe/Desktop/themis/contracts/CampaignFactory.sol",
  "compiler": {
    "name": "solc",
    "version": "0.8.9+commit.e5eed63a.Emscripten.clang"
  },
  "schemaVersion": "3.4.3",
  "updatedAt": "2021-11-07T13:29:56.854Z",
  "networkType": "ethereum",
  "devdoc": {
    "kind": "dev",
    "methods": {},
    "version": 1
  },
  "userdoc": {
    "kind": "user",
    "methods": {},
    "version": 1
  }
}