{
  "contractName": "CampaignFactory",
  "abi": [
    {
      "inputs": [],
      "stateMutability": "nonpayable",
      "type": "constructor"
    },
    {
      "anonymous": false,
      "inputs": [
        {
          "indexed": false,
          "internalType": "address",
          "name": "_address",
          "type": "address"
        },
        {
          "indexed": false,
          "internalType": "uint256",
          "name": "_gameId",
          "type": "uint256"
        }
      ],
      "name": "Clonecreated",
      "type": "event"
    },
    {
      "inputs": [],
      "name": "implementationContract",
      "outputs": [
        {
          "internalType": "address",
          "name": "",
          "type": "address"
        }
      ],
      "stateMutability": "view",
      "type": "function",
      "constant": true
    },
    {
      "inputs": [
        {
          "internalType": "uint256",
          "name": "_gameId",
          "type": "uint256"
        }
      ],
      "name": "getAddress",
      "outputs": [
        {
          "internalType": "address",
          "name": "",
          "type": "address"
        }
      ],
      "stateMutability": "view",
      "type": "function",
      "constant": true
    },
    {
      "inputs": [
        {
          "internalType": "address",
          "name": "_oracle",
          "type": "address"
        },
        {
          "internalType": "uint256",
          "name": "_interval",
          "type": "uint256"
        },
        {
          "internalType": "uint256",
          "name": "_gameId",
          "type": "uint256"
        },
        {
          "internalType": "uint256",
          "name": "_teamId0",
          "type": "uint256"
        },
        {
          "internalType": "uint256",
          "name": "_teamId1",
          "type": "uint256"
        },
        {
          "internalType": "uint256",
          "name": "_initialOdds0",
          "type": "uint256"
        },
        {
          "internalType": "uint256",
          "name": "_initialOdds1",
          "type": "uint256"
        },
        {
          "internalType": "uint256",
          "name": "_drawodds",
          "type": "uint256"
        },
        {
          "internalType": "uint256",
          "name": "_expectedFulfillTime",
          "type": "uint256"
        }
      ],
      "name": "createCampaign",
      "outputs": [
        {
          "internalType": "address",
          "name": "",
          "type": "address"
        }
      ],
      "stateMutability": "nonpayable",
      "type": "function"
    }
  ],
  "bytecode": "0x60a060405234801561001057600080fd5b5060405161001d90610072565b604051809103906000f080158015610039573d6000803e3d6000fd5b5073ffffffffffffffffffffffffffffffffffffffff1660808173ffffffffffffffffffffffffffffffffffffffff168152505061007f565b612d078061072083390190565b6080516106806100a06000396000818160c6015261012c01526106806000f3fe608060405234801561001057600080fd5b50600436106100415760003560e01c806399e7d05614610046578063b93f9b0a14610064578063e7b995b214610094575b600080fd5b61004e6100c4565b60405161005b9190610380565b60405180910390f35b61007e600480360381019061007991906103d6565b6100e8565b60405161008b9190610380565b60405180910390f35b6100ae60048036038101906100a9919061042f565b610124565b6040516100bb9190610380565b60405180910390f35b7f000000000000000000000000000000000000000000000000000000000000000081565b600080600083815260200190815260200160002060009054906101000a900473ffffffffffffffffffffffffffffffffffffffff169050919050565b6000806101507f000000000000000000000000000000000000000000000000000000000000000061026a565b90508073ffffffffffffffffffffffffffffffffffffffff166363079fe48c8c8c8c8c8c8c8c338d6040518b63ffffffff1660e01b815260040161019d9a99989796959493929190610508565b600060405180830381600087803b1580156101b757600080fd5b505af11580156101cb573d6000803e3d6000fd5b50505050806000808b815260200190815260200160002060006101000a81548173ffffffffffffffffffffffffffffffffffffffff021916908373ffffffffffffffffffffffffffffffffffffffff1602179055507f4182a69cbb0e43324a5c40923f0900481b010cea609d4fbcc12ae96545da9517818a6040516102519291906105a4565b60405180910390a1809150509998505050505050505050565b60006040517f3d602d80600a3d3981f3363d3d373d3d3d363d7300000000000000000000000081528260601b60148201527f5af43d82803e903d91602b57fd5bf3000000000000000000000000000000000060288201526037816000f0915050600073ffffffffffffffffffffffffffffffffffffffff168173ffffffffffffffffffffffffffffffffffffffff16141561033a576040517f08c379a00000000000000000000000000000000000000000000000000000000081526004016103319061062a565b60405180910390fd5b919050565b600073ffffffffffffffffffffffffffffffffffffffff82169050919050565b600061036a8261033f565b9050919050565b61037a8161035f565b82525050565b60006020820190506103956000830184610371565b92915050565b600080fd5b6000819050919050565b6103b3816103a0565b81146103be57600080fd5b50565b6000813590506103d0816103aa565b92915050565b6000602082840312156103ec576103eb61039b565b5b60006103fa848285016103c1565b91505092915050565b61040c8161035f565b811461041757600080fd5b50565b60008135905061042981610403565b92915050565b60008060008060008060008060006101208a8c0312156104525761045161039b565b5b60006104608c828d0161041a565b99505060206104718c828d016103c1565b98505060406104828c828d016103c1565b97505060606104938c828d016103c1565b96505060806104a48c828d016103c1565b95505060a06104b58c828d016103c1565b94505060c06104c68c828d016103c1565b93505060e06104d78c828d016103c1565b9250506101006104e98c828d016103c1565b9150509295985092959850929598565b610502816103a0565b82525050565b60006101408201905061051e600083018d610371565b61052b602083018c6104f9565b610538604083018b6104f9565b610545606083018a6104f9565b61055260808301896104f9565b61055f60a08301886104f9565b61056c60c08301876104f9565b61057960e08301866104f9565b610587610100830185610371565b6105956101208301846104f9565b9b9a5050505050505050505050565b60006040820190506105b96000830185610371565b6105c660208301846104f9565b9392505050565b600082825260208201905092915050565b7f455243313136373a20637265617465206661696c656400000000000000000000600082015250565b60006106146016836105cd565b915061061f826105de565b602082019050919050565b6000602082019050818103600083015261064381610607565b905091905056fea264697066735822122027ae058b4e266fbbac122254ea665ea6ff79c2bcbb3e2c190e8daaecc4d1d05464736f6c634300080a00336080604052600160045534801561001557600080fd5b50612ce2806100256000396000f3fe6080604052600436106101445760003560e01c80636e04ff0d116100b6578063947a36fb1161006f578063947a36fb14610401578063a337a4991461042c578063a75b15c614610457578063d7c81b5514610482578063e2d46f98146104ad578063e9f510bf146104d85761014b565b80636e04ff0d1461030057806371dba98d1461033e5780637a7aee02146103695780638026073814610394578063853f9a27146103bf5780638dc654a2146103ea5761014b565b80633f3b3b27116101085780633f3b3b2714610225578063454a2ab3146102505780634585e33b1461026c5780634e71d92d1461029557806361bc221a146102ac57806363079fe4146102d75761014b565b8063165d35e11461015057806334c4582b1461017b5780633abdcd29146101a45780633d28c8d6146101cf5780633dd9b751146101fa5761014b565b3661014b57005b600080fd5b34801561015c57600080fd5b50610165610501565b6040516101729190611bc1565b60405180910390f35b34801561018757600080fd5b506101a2600480360381019061019d9190611c5c565b610510565b005b3480156101b057600080fd5b506101b96106a4565b6040516101c69190611cbe565b60405180910390f35b3480156101db57600080fd5b506101e46106aa565b6040516101f19190611cbe565b60405180910390f35b34801561020657600080fd5b5061020f6106b0565b60405161021c9190611cbe565b60405180910390f35b34801561023157600080fd5b5061023a6106b6565b6040516102479190611cbe565b60405180910390f35b61026a60048036038101906102659190611cd9565b6106bc565b005b34801561027857600080fd5b50610293600480360381019061028e9190611d6b565b610879565b005b3480156102a157600080fd5b506102aa6108d7565b005b3480156102b857600080fd5b506102c1610b83565b6040516102ce9190611cbe565b60405180910390f35b3480156102e357600080fd5b506102fe60048036038101906102f99190611de4565b610b89565b005b34801561030c57600080fd5b5061032760048036038101906103229190611d6b565b610c2e565b604051610335929190611f77565b60405180910390f35b34801561034a57600080fd5b50610353610cba565b6040516103609190611cbe565b60405180910390f35b34801561037557600080fd5b5061037e610cc0565b60405161038b9190611cbe565b60405180910390f35b3480156103a057600080fd5b506103a9610cc6565b6040516103b69190611cbe565b60405180910390f35b3480156103cb57600080fd5b506103d4610ccc565b6040516103e19190611cbe565b60405180910390f35b3480156103f657600080fd5b506103ff610cd2565b005b34801561040d57600080fd5b50610416610ea7565b6040516104239190611cbe565b60405180910390f35b34801561043857600080fd5b50610441610ead565b60405161044e9190611cbe565b60405180910390f35b34801561046357600080fd5b5061046c610eb3565b6040516104799190611cbe565b60405180910390f35b34801561048e57600080fd5b50610497610eb9565b6040516104a49190611cbe565b60405180910390f35b3480156104b957600080fd5b506104c2610ebf565b6040516104cf9190611fa7565b60405180910390f35b3480156104e457600080fd5b506104ff60048036038101906104fa91906120f2565b610ed2565b005b600061050b610ff7565b905090565b826005600082815260200190815260200160002060009054906101000a900473ffffffffffffffffffffffffffffffffffffffff1673ffffffffffffffffffffffffffffffffffffffff163373ffffffffffffffffffffffffffffffffffffffff16146105b2576040517f08c379a00000000000000000000000000000000000000000000000000000000081526004016105a9906121be565b60405180910390fd5b6005600082815260200190815260200160002060006101000a81549073ffffffffffffffffffffffffffffffffffffffff0219169055807f7cc135e0cebb02c3480ae5d74d377283180a2601f8f644edf7987b009316c63a60405160405180910390a28183857f905541bce4bda38978b15f71118e316b6792e67dc4bb8e13bbd129038d5b653760405160405180910390a4826006819055508160078190555060075460065411610677576007546006541061066f576002610672565b60015b61067a565b60005b60ff166014819055506001601560006101000a81548160ff02191690831515021790555050505050565b600f5481565b600e5481565b60065481565b60125481565b600a548114806106cd5750600b5481145b61070c576040517f08c379a000000000000000000000000000000000000000000000000000000000815260040161070390612250565b60405180910390fd5b6000341161074f576040517f08c379a0000000000000000000000000000000000000000000000000000000008152600401610746906122bc565b60405180910390fd5b601360003373ffffffffffffffffffffffffffffffffffffffff1673ffffffffffffffffffffffffffffffffffffffff1681526020019081526020016000206000016040518060600160405280600a5484146107bf57600b5484146107b657600e546107ba565b600d545b6107c3565b600c545b815260200134815260200183815250908060018154018082558091505060019003906000526020600020906003020160009091909190915060008201518160000155602082015181600101556040820151816002015550506001601360003373ffffffffffffffffffffffffffffffffffffffff1673ffffffffffffffffffffffffffffffffffffffff16815260200190815260200160002060010160006101000a81548160ff02191690831515021790555050565b42601281905550600160115461088f919061230b565b6011819055506108d36040518060400160405280602081526020017f3762663030363435303463303430323161343362396562616464646665646662815250610ed2565b5050565b6000339050601360008273ffffffffffffffffffffffffffffffffffffffff1673ffffffffffffffffffffffffffffffffffffffff16815260200190815260200160002060010160009054906101000a900460ff1661096b576040517f08c379a0000000000000000000000000000000000000000000000000000000008152600401610962906123ad565b60405180910390fd5b601560009054906101000a900460ff166109ba576040517f08c379a00000000000000000000000000000000000000000000000000000000081526004016109b19061243f565b60405180910390fd5b6000805b601360008473ffffffffffffffffffffffffffffffffffffffff1673ffffffffffffffffffffffffffffffffffffffff16815260200190815260200160002060000180549050811015610aea576000601360008573ffffffffffffffffffffffffffffffffffffffff1673ffffffffffffffffffffffffffffffffffffffff1681526020019081526020016000206000018281548110610a6157610a6061245f565b5b90600052602060002090600302016040518060600160405290816000820154815260200160018201548152602001600282015481525050905060145481604001511415610ad657606481602001518260000151610abe919061248e565b610ac89190612517565b83610ad3919061230b565b92505b508080610ae290612548565b9150506109be565b5080471015610b2e576040517f08c379a0000000000000000000000000000000000000000000000000000000008152600401610b2590612603565b60405180910390fd5b6000811115610b7f578173ffffffffffffffffffffffffffffffffffffffff166108fc829081150290604051600060405180830381858888f19350505050158015610b7d573d6000803e3d6000fd5b505b5050565b60115481565b81600860006101000a81548173ffffffffffffffffffffffffffffffffffffffff021916908373ffffffffffffffffffffffffffffffffffffffff1602179055508760098190555086600a8190555085600b8190555084600c8190555083600d8190555082600e8190555080600f8190555088601081905550426012819055506000601181905550610c19611021565b610c228a6110ae565b50505050505050505050565b60006060601560009054906101000a900460ff16158015610c505750600f5442115b8015610c6a575060105460125442610c689190612623565b115b915083838080601f016020809104026020016040519081016040528093929190818152602001838380828437600081840152601f19601f8201169050808301925050505050505090509250929050565b600b5481565b600d5481565b600a5481565b600c5481565b600860009054906101000a900473ffffffffffffffffffffffffffffffffffffffff1673ffffffffffffffffffffffffffffffffffffffff163373ffffffffffffffffffffffffffffffffffffffff1614610d62576040517f08c379a0000000000000000000000000000000000000000000000000000000008152600401610d59906126a3565b60405180910390fd5b6000610d6c610ff7565b90508073ffffffffffffffffffffffffffffffffffffffff1663a9059cbb338373ffffffffffffffffffffffffffffffffffffffff166370a08231306040518263ffffffff1660e01b8152600401610dc49190611bc1565b602060405180830381865afa158015610de1573d6000803e3d6000fd5b505050506040513d601f19601f82011682018060405250810190610e0591906126d8565b6040518363ffffffff1660e01b8152600401610e22929190612705565b6020604051808303816000875af1158015610e41573d6000803e3d6000fd5b505050506040513d601f19601f82011682018060405250810190610e65919061275a565b610ea4576040517f08c379a0000000000000000000000000000000000000000000000000000000008152600401610e9b906127d3565b60405180910390fd5b50565b60105481565b60145481565b60075481565b60095481565b601560009054906101000a900460ff1681565b600860009054906101000a900473ffffffffffffffffffffffffffffffffffffffff1673ffffffffffffffffffffffffffffffffffffffff163373ffffffffffffffffffffffffffffffffffffffff1614610f62576040517f08c379a0000000000000000000000000000000000000000000000000000000008152600401610f59906126a3565b60405180910390fd5b6000610f7e610f70836110f2565b306334c4582b60e01b61111c565b9050610fd46040518060400160405280600681526020017f67616d6549640000000000000000000000000000000000000000000000000000815250610fc460095461114d565b836112d69092919063ffffffff16565b610ff281670de0b6b3a76400006001610fed919061248e565b611309565b505050565b6000600260009054906101000a900473ffffffffffffffffffffffffffffffffffffffff16905090565b6110ac73c89bd4e1632d3a43cb03aaad5262cbe4038bc57173ffffffffffffffffffffffffffffffffffffffff166338cc48316040518163ffffffff1660e01b8152600401602060405180830381865afa158015611083573d6000803e3d6000fd5b505050506040513d601f19601f820116820180604052508101906110a79190612808565b611340565b565b80600360006101000a81548173ffffffffffffffffffffffffffffffffffffffff021916908373ffffffffffffffffffffffffffffffffffffffff16021790555050565b60008082905060008151141561110e576000801b915050611117565b60208301519150505b919050565b611124611af9565b61112c611af9565b61114385858584611384909392919063ffffffff16565b9150509392505050565b60606000821415611195576040518060400160405280600181526020017f300000000000000000000000000000000000000000000000000000000000000081525090506112d1565b600082905060005b600082146111c75780806111b090612548565b915050600a826111c09190612517565b915061119d565b60008167ffffffffffffffff8111156111e3576111e2611fc7565b5b6040519080825280601f01601f1916602001820160405280156112155781602001600182028036833780820191505090505b50905060008290505b600086146112c9576001816112339190612623565b90506000600a80886112459190612517565b61124f919061248e565b8761125a9190612623565b60306112669190612842565b905060008160f81b9050808484815181106112845761128361245f565b5b60200101907effffffffffffffffffffffffffffffffffffffffffffffffffffffffffffff1916908160001a905350600a886112c09190612517565b9750505061121e565b819450505050505b919050565b6112ed82846080015161143490919063ffffffff16565b61130481846080015161143490919063ffffffff16565b505050565b6000611338600360009054906101000a900473ffffffffffffffffffffffffffffffffffffffff168484611459565b905092915050565b80600260006101000a81548173ffffffffffffffffffffffffffffffffffffffff021916908373ffffffffffffffffffffffffffffffffffffffff16021790555050565b61138c611af9565b61139c8560800151610100611479565b508385600001818152505082856020019073ffffffffffffffffffffffffffffffffffffffff16908173ffffffffffffffffffffffffffffffffffffffff16815250508185604001907bffffffffffffffffffffffffffffffffffffffffffffffffffffffff191690817bffffffffffffffffffffffffffffffffffffffffffffffffffffffff191681525050849050949350505050565b61144182600383516114e3565b611454818361162890919063ffffffff16565b505050565b60006114708484846002636de879d660e01b61164a565b90509392505050565b611481611b66565b60006020836114909190612879565b146114bc576020826114a29190612879565b60206114ae9190612623565b826114b9919061230b565b91505b81836020018181525050604051808452600081528281016020016040525082905092915050565b601781116115105761150a8160058460ff16901b60ff1617846118a390919063ffffffff16565b50611623565b60ff811161155257611535601860058460ff16901b17846118a390919063ffffffff16565b5061154c816001856118c39092919063ffffffff16565b50611622565b61ffff811161159557611578601960058460ff16901b17846118a390919063ffffffff16565b5061158f816002856118c39092919063ffffffff16565b50611621565b63ffffffff81116115da576115bd601a60058460ff16901b17846118a390919063ffffffff16565b506115d4816004856118c39092919063ffffffff16565b50611620565b67ffffffffffffffff811161161f57611606601b60058460ff16901b17846118a390919063ffffffff16565b5061161d816008856118c39092919063ffffffff16565b505b5b5b5b5b505050565b611630611b66565b611642838460000151518485516118e5565b905092915050565b600030600454604051602001611661929190612963565b604051602081830303815290604052805190602001209050600454856060018181525050856005600083815260200190815260200160002060006101000a81548173ffffffffffffffffffffffffffffffffffffffff021916908373ffffffffffffffffffffffffffffffffffffffff160217905550807fb5e6e01e79f91267dc17b4e6314d5d4d03593d2ceee0fbb452b750bd70ea5af960405160405180910390a2600082600080886000015189602001518a604001518b606001518a8d608001516000015160405160240161173f9897969594939291906129d9565b604051602081830303815290604052907bffffffffffffffffffffffffffffffffffffffffffffffffffffffff19166020820180517bffffffffffffffffffffffffffffffffffffffffffffffffffffffff83818316178352505050509050600260009054906101000a900473ffffffffffffffffffffffffffffffffffffffff1673ffffffffffffffffffffffffffffffffffffffff16634000aea08887846040518463ffffffff1660e01b81526004016117fd93929190612a5e565b6020604051808303816000875af115801561181c573d6000803e3d6000fd5b505050506040513d601f19601f82011682018060405250810190611840919061275a565b61187f576040517f08c379a000000000000000000000000000000000000000000000000000000000815260040161187690612b0e565b60405180910390fd5b600160046000828254611892919061230b565b925050819055505095945050505050565b6118ab611b66565b6118bb83846000015151846119d4565b905092915050565b6118cb611b66565b6118dc848560000151518585611a2b565b90509392505050565b6118ed611b66565b82518211156118fb57600080fd5b8460200151828561190c919061230b565b1115611941576119408560026119318860200151888761192c919061230b565b611ab9565b61193b919061248e565b611ad5565b5b6000808651805187602083010193508088870111156119605787860182525b60208701925050505b602084106119a75780518252602082611982919061230b565b9150602081611991919061230b565b90506020846119a09190612623565b9350611969565b60006001856020036101000a03905080198251168184511681811785525050508692505050949350505050565b6119dc611b66565b83602001518310611a0257611a0184600286602001516119fc919061248e565b611ad5565b5b8351805160208583010184815381861415611a1e576001820183525b5050508390509392505050565b611a33611b66565b84602001518483611a44919061230b565b1115611a6c57611a6b8560028685611a5c919061230b565b611a66919061248e565b611ad5565b5b6000600183610100611a7e9190612c61565b611a889190612623565b90508551838682010185831982511617815281518588011115611aab5784870182525b505085915050949350505050565b600081831115611acb57829050611acf565b8190505b92915050565b600082600001519050611ae88383611479565b50611af38382611628565b50505050565b6040518060a0016040528060008019168152602001600073ffffffffffffffffffffffffffffffffffffffff16815260200160007bffffffffffffffffffffffffffffffffffffffffffffffffffffffff1916815260200160008152602001611b60611b66565b81525090565b604051806040016040528060608152602001600081525090565b600073ffffffffffffffffffffffffffffffffffffffff82169050919050565b6000611bab82611b80565b9050919050565b611bbb81611ba0565b82525050565b6000602082019050611bd66000830184611bb2565b92915050565b6000604051905090565b600080fd5b600080fd5b6000819050919050565b611c0381611bf0565b8114611c0e57600080fd5b50565b600081359050611c2081611bfa565b92915050565b6000819050919050565b611c3981611c26565b8114611c4457600080fd5b50565b600081359050611c5681611c30565b92915050565b600080600060608486031215611c7557611c74611be6565b5b6000611c8386828701611c11565b9350506020611c9486828701611c47565b9250506040611ca586828701611c47565b9150509250925092565b611cb881611c26565b82525050565b6000602082019050611cd36000830184611caf565b92915050565b600060208284031215611cef57611cee611be6565b5b6000611cfd84828501611c47565b91505092915050565b600080fd5b600080fd5b600080fd5b60008083601f840112611d2b57611d2a611d06565b5b8235905067ffffffffffffffff811115611d4857611d47611d0b565b5b602083019150836001820283011115611d6457611d63611d10565b5b9250929050565b60008060208385031215611d8257611d81611be6565b5b600083013567ffffffffffffffff811115611da057611d9f611beb565b5b611dac85828601611d15565b92509250509250929050565b611dc181611ba0565b8114611dcc57600080fd5b50565b600081359050611dde81611db8565b92915050565b6000806000806000806000806000806101408b8d031215611e0857611e07611be6565b5b6000611e168d828e01611dcf565b9a50506020611e278d828e01611c47565b9950506040611e388d828e01611c47565b9850506060611e498d828e01611c47565b9750506080611e5a8d828e01611c47565b96505060a0611e6b8d828e01611c47565b95505060c0611e7c8d828e01611c47565b94505060e0611e8d8d828e01611c47565b935050610100611e9f8d828e01611dcf565b925050610120611eb18d828e01611c47565b9150509295989b9194979a5092959850565b60008115159050919050565b611ed881611ec3565b82525050565b600081519050919050565b600082825260208201905092915050565b60005b83811015611f18578082015181840152602081019050611efd565b83811115611f27576000848401525b50505050565b6000601f19601f8301169050919050565b6000611f4982611ede565b611f538185611ee9565b9350611f63818560208601611efa565b611f6c81611f2d565b840191505092915050565b6000604082019050611f8c6000830185611ecf565b8181036020830152611f9e8184611f3e565b90509392505050565b6000602082019050611fbc6000830184611ecf565b92915050565b600080fd5b7f4e487b7100000000000000000000000000000000000000000000000000000000600052604160045260246000fd5b611fff82611f2d565b810181811067ffffffffffffffff8211171561201e5761201d611fc7565b5b80604052505050565b6000612031611bdc565b905061203d8282611ff6565b919050565b600067ffffffffffffffff82111561205d5761205c611fc7565b5b61206682611f2d565b9050602081019050919050565b82818337600083830152505050565b600061209561209084612042565b612027565b9050828152602081018484840111156120b1576120b0611fc2565b5b6120bc848285612073565b509392505050565b600082601f8301126120d9576120d8611d06565b5b81356120e9848260208601612082565b91505092915050565b60006020828403121561210857612107611be6565b5b600082013567ffffffffffffffff81111561212657612125611beb565b5b612132848285016120c4565b91505092915050565b600082825260208201905092915050565b7f536f75726365206d75737420626520746865206f7261636c65206f662074686560008201527f2072657175657374000000000000000000000000000000000000000000000000602082015250565b60006121a860288361213b565b91506121b38261214c565b604082019050919050565b600060208201905081810360008301526121d78161219b565b9050919050565b7f63616e206f6e6c792062696420666f72207465616d20696e766f6c766564206960008201527f6e2074686973206d617463680000000000000000000000000000000000000000602082015250565b600061223a602c8361213b565b9150612245826121de565b604082019050919050565b600060208201905081810360008301526122698161222d565b9050919050565b7f63616e277420626964203020616d6f756e740000000000000000000000000000600082015250565b60006122a660128361213b565b91506122b182612270565b602082019050919050565b600060208201905081810360008301526122d581612299565b9050919050565b7f4e487b7100000000000000000000000000000000000000000000000000000000600052601160045260246000fd5b600061231682611c26565b915061232183611c26565b9250827fffffffffffffffffffffffffffffffffffffffffffffffffffffffffffffffff03821115612356576123556122dc565b5b828201905092915050565b7f63616e277420636c61696d206966206e6f7420626964646564206265666f7265600082015250565b600061239760208361213b565b91506123a282612361565b602082019050919050565b600060208201905081810360008301526123c68161238a565b9050919050565b7f63616e277420636c61696d206265666f726520726573756c742069732066756c60008201527f66696c6c65642066726f6d206f7261636c650000000000000000000000000000602082015250565b600061242960328361213b565b9150612434826123cd565b604082019050919050565b600060208201905081810360008301526124588161241c565b9050919050565b7f4e487b7100000000000000000000000000000000000000000000000000000000600052603260045260246000fd5b600061249982611c26565b91506124a483611c26565b9250817fffffffffffffffffffffffffffffffffffffffffffffffffffffffffffffffff04831182151516156124dd576124dc6122dc565b5b828202905092915050565b7f4e487b7100000000000000000000000000000000000000000000000000000000600052601260045260246000fd5b600061252282611c26565b915061252d83611c26565b92508261253d5761253c6124e8565b5b828204905092915050565b600061255382611c26565b91507fffffffffffffffffffffffffffffffffffffffffffffffffffffffffffffffff821415612586576125856122dc565b5b600182019050919050565b7f6e6f7420656e6f7567682062616c616e636520696e2074686520636f6e74726160008201527f637420746f206d616b6520746865207472616e73666572000000000000000000602082015250565b60006125ed60378361213b565b91506125f882612591565b604082019050919050565b6000602082019050818103600083015261261c816125e0565b9050919050565b600061262e82611c26565b915061263983611c26565b92508282101561264c5761264b6122dc565b5b828203905092915050565b7f63616c6c6572206973206e6f74206f776e657200000000000000000000000000600082015250565b600061268d60138361213b565b915061269882612657565b602082019050919050565b600060208201905081810360008301526126bc81612680565b9050919050565b6000815190506126d281611c30565b92915050565b6000602082840312156126ee576126ed611be6565b5b60006126fc848285016126c3565b91505092915050565b600060408201905061271a6000830185611bb2565b6127276020830184611caf565b9392505050565b61273781611ec3565b811461274257600080fd5b50565b6000815190506127548161272e565b92915050565b6000602082840312156127705761276f611be6565b5b600061277e84828501612745565b91505092915050565b7f556e61626c6520746f207472616e736665720000000000000000000000000000600082015250565b60006127bd60128361213b565b91506127c882612787565b602082019050919050565b600060208201905081810360008301526127ec816127b0565b9050919050565b60008151905061280281611db8565b92915050565b60006020828403121561281e5761281d611be6565b5b600061282c848285016127f3565b91505092915050565b600060ff82169050919050565b600061284d82612835565b915061285883612835565b92508260ff0382111561286e5761286d6122dc565b5b828201905092915050565b600061288482611c26565b915061288f83611c26565b92508261289f5761289e6124e8565b5b828206905092915050565b6000819050919050565b60006128cf6128ca6128c584611b80565b6128aa565b611b80565b9050919050565b60006128e1826128b4565b9050919050565b60006128f3826128d6565b9050919050565b60008160601b9050919050565b6000612912826128fa565b9050919050565b600061292482612907565b9050919050565b61293c612937826128e8565b612919565b82525050565b6000819050919050565b61295d61295882611c26565b612942565b82525050565b600061296f828561292b565b60148201915061297f828461294c565b6020820191508190509392505050565b61299881611bf0565b82525050565b60007fffffffff0000000000000000000000000000000000000000000000000000000082169050919050565b6129d38161299e565b82525050565b6000610100820190506129ef600083018b611bb2565b6129fc602083018a611caf565b612a09604083018961298f565b612a166060830188611bb2565b612a2360808301876129ca565b612a3060a0830186611caf565b612a3d60c0830185611caf565b81810360e0830152612a4f8184611f3e565b90509998505050505050505050565b6000606082019050612a736000830186611bb2565b612a806020830185611caf565b8181036040830152612a928184611f3e565b9050949350505050565b7f756e61626c6520746f207472616e73666572416e6443616c6c20746f206f726160008201527f636c650000000000000000000000000000000000000000000000000000000000602082015250565b6000612af860238361213b565b9150612b0382612a9c565b604082019050919050565b60006020820190508181036000830152612b2781612aeb565b9050919050565b60008160011c9050919050565b6000808291508390505b6001851115612b8557808604811115612b6157612b606122dc565b5b6001851615612b705780820291505b8081029050612b7e85612b2e565b9450612b45565b94509492505050565b600082612b9e5760019050612c5a565b81612bac5760009050612c5a565b8160018114612bc25760028114612bcc57612bfb565b6001915050612c5a565b60ff841115612bde57612bdd6122dc565b5b8360020a915084821115612bf557612bf46122dc565b5b50612c5a565b5060208310610133831016604e8410600b8410161715612c305782820a905083811115612c2b57612c2a6122dc565b5b612c5a565b612c3d8484846001612b3b565b92509050818404811115612c5457612c536122dc565b5b81810290505b9392505050565b6000612c6c82611c26565b9150612c7783611c26565b9250612ca47fffffffffffffffffffffffffffffffffffffffffffffffffffffffffffffffff8484612b8e565b90509291505056fea2646970667358221220ce7ef23eb43d352e1f6a80294bb3db9e1c544b6bf15a3152cbac81140b2f6dad64736f6c634300080a0033",
  "immutableReferences": {
    "2811": [
      {
        "length": 32,
        "start": 198
      },
      {
        "length": 32,
        "start": 300
      }
    ]
  },
  "source": "// SPDX-License-Identifier: MIT\npragma solidity >=0.4.22 <0.9.0;\n\nimport \"./Campaign.sol\";\nimport \"@openzeppelin/contracts/proxy/Clones.sol\";\n\ncontract CampaignFactory {\n    address public immutable implementationContract;\n    // gameId -> deployedAddr\n    mapping(uint256 => address) gameId2Addr;\n    // address[] public cloneAddress; \n\n    event Clonecreated(address _address, uint256 _gameId);\n\n    constructor() {\n        implementationContract = address(new Campaign());\n    }\n\n    // function getCloneAddrs() external view returns (address[] memory) {\n    //     return cloneAddress;\n    // }\n    // get deployed address based on _gameId, return 0x0 if no contract has been deployed for this queried _gameId\n    function getAddress(uint256 _gameId) external view returns (address) {\n        return gameId2Addr[_gameId];\n    }\n\n    function createCampaign(\n        address _oracle,\n        uint256 _interval,\n        uint256 _gameId,\n        uint256 _teamId0,\n        uint256 _teamId1,\n        uint256 _initialOdds0,\n        uint256 _initialOdds1,\n        uint256 _drawodds,\n        uint256 _expectedFulfillTime\n    ) external returns (address) {\n        address clone = Clones.clone(implementationContract);\n        Campaign(payable(clone)).initialize(\n            _oracle,\n            _interval,\n            _gameId,\n            _teamId0,\n            _teamId1,\n            _initialOdds0,\n            _initialOdds1,\n            _drawodds,\n            msg.sender,\n            _expectedFulfillTime\n        );\n        gameId2Addr[_gameId] = clone;\n        emit Clonecreated(clone, _gameId);\n        return clone;\n    }\n}\n",
  "sourcePath": "/Users/rodrigotaipe/Desktop/themis/contracts/CampaignFactory.sol",
  "compiler": {
    "name": "solc",
    "version": "0.8.10+commit.fc410830.Emscripten.clang"
  },
  "schemaVersion": "3.4.3",
  "updatedAt": "2021-11-25T02:37:21.248Z",
  "networkType": "ethereum",
  "devdoc": {
    "kind": "dev",
    "methods": {},
    "version": 1
  },
  "userdoc": {
    "kind": "user",
    "methods": {},
    "version": 1
  }
}