{
  "contractName": "Counter",
  "abi": [
    {
      "inputs": [
        {
          "internalType": "uint256",
          "name": "_interval",
          "type": "uint256"
        }
      ],
      "stateMutability": "nonpayable",
      "type": "constructor"
    },
    {
      "inputs": [],
      "name": "counter",
      "outputs": [
        {
          "internalType": "uint256",
          "name": "",
          "type": "uint256"
        }
      ],
      "stateMutability": "view",
      "type": "function"
    },
    {
      "inputs": [],
      "name": "interval",
      "outputs": [
        {
          "internalType": "uint256",
          "name": "",
          "type": "uint256"
        }
      ],
      "stateMutability": "view",
      "type": "function"
    },
    {
      "inputs": [],
      "name": "lastTimeStamp",
      "outputs": [
        {
          "internalType": "uint256",
          "name": "",
          "type": "uint256"
        }
      ],
      "stateMutability": "view",
      "type": "function"
    },
    {
      "inputs": [
        {
          "internalType": "bytes",
          "name": "checkData",
          "type": "bytes"
        }
      ],
      "name": "checkUpkeep",
      "outputs": [
        {
          "internalType": "bool",
          "name": "upkeepNeeded",
          "type": "bool"
        },
        {
          "internalType": "bytes",
          "name": "performData",
          "type": "bytes"
        }
      ],
      "stateMutability": "view",
      "type": "function"
    },
    {
      "inputs": [
        {
          "internalType": "bytes",
          "name": "performData",
          "type": "bytes"
        }
      ],
      "name": "performUpkeep",
      "outputs": [],
      "stateMutability": "nonpayable",
      "type": "function"
    }
  ],
  "bytecode": "0x60a060405234801561001057600080fd5b5060405161057238038061057283398181016040528101906100329190610089565b80608081815250504260018190555060008081905550506100b6565b600080fd5b6000819050919050565b61006681610053565b811461007157600080fd5b50565b6000815190506100838161005d565b92915050565b60006020828403121561009f5761009e61004e565b5b60006100ad84828501610074565b91505092915050565b60805161049a6100d86000396000818161013501526101b5015261049a6000f3fe608060405234801561001057600080fd5b50600436106100575760003560e01c80633f3b3b271461005c5780634585e33b1461007a57806361bc221a146100965780636e04ff0d146100b4578063947a36fb146100e5575b600080fd5b610064610103565b60405161007191906101f0565b60405180910390f35b610094600480360381019061008f919061027a565b610109565b005b61009e610129565b6040516100ab91906101f0565b60405180910390f35b6100ce60048036038101906100c9919061027a565b61012f565b6040516100dc92919061037b565b60405180910390f35b6100ed6101b3565b6040516100fa91906101f0565b60405180910390f35b60015481565b42600181905550600160005461011f91906103da565b6000819055505050565b60005481565b600060607f0000000000000000000000000000000000000000000000000000000000000000600154426101629190610430565b11915083838080601f016020809104026020016040519081016040528093929190818152602001838380828437600081840152601f19601f8201169050808301925050505050505090509250929050565b7f000000000000000000000000000000000000000000000000000000000000000081565b6000819050919050565b6101ea816101d7565b82525050565b600060208201905061020560008301846101e1565b92915050565b600080fd5b600080fd5b600080fd5b600080fd5b600080fd5b60008083601f84011261023a57610239610215565b5b8235905067ffffffffffffffff8111156102575761025661021a565b5b6020830191508360018202830111156102735761027261021f565b5b9250929050565b600080602083850312156102915761029061020b565b5b600083013567ffffffffffffffff8111156102af576102ae610210565b5b6102bb85828601610224565b92509250509250929050565b60008115159050919050565b6102dc816102c7565b82525050565b600081519050919050565b600082825260208201905092915050565b60005b8381101561031c578082015181840152602081019050610301565b8381111561032b576000848401525b50505050565b6000601f19601f8301169050919050565b600061034d826102e2565b61035781856102ed565b93506103678185602086016102fe565b61037081610331565b840191505092915050565b600060408201905061039060008301856102d3565b81810360208301526103a28184610342565b90509392505050565b7f4e487b7100000000000000000000000000000000000000000000000000000000600052601160045260246000fd5b60006103e5826101d7565b91506103f0836101d7565b9250827fffffffffffffffffffffffffffffffffffffffffffffffffffffffffffffffff03821115610425576104246103ab565b5b828201905092915050565b600061043b826101d7565b9150610446836101d7565b925082821015610459576104586103ab565b5b82820390509291505056fea264697066735822122021b24e4af6849ef72445314c743846d346e6ad67d1ec1e0acbd322130e75bc2264736f6c634300080a0033",
  "immutableReferences": {
    "2935": [
      {
        "length": 32,
        "start": 309
      },
      {
        "length": 32,
        "start": 437
      }
    ]
  },
  "source": "// SPDX-License-Identifier: MIT\npragma solidity >=0.4.22 <0.9.0;\n\ninterface KeeperCompatibleInterface {\n    function checkUpkeep(bytes calldata checkData) external returns (bool upkeepNeeded, bytes memory performData);\n    function performUpkeep(bytes calldata performData) external;\n}\n\ncontract Counter is KeeperCompatibleInterface {\n\n    uint public counter;    // Public counter variable\n\n    // Use an interval in seconds and a timestamp to slow execution of Upkeep\n    uint public immutable interval;\n    uint public lastTimeStamp;    \n\n    constructor(uint _interval) {\n      interval = _interval;\n      lastTimeStamp = block.timestamp;\n      counter = 0;\n    }\n\n    function checkUpkeep(bytes calldata checkData) external view override returns (bool upkeepNeeded, bytes memory performData) {\n        upkeepNeeded = (block.timestamp - lastTimeStamp) > interval;\n        performData = checkData;\n    }\n\n    function performUpkeep(bytes calldata performData) external override {\n        lastTimeStamp = block.timestamp;\n        counter = counter + 1;\n        performData;\n    }\n}\n\n",
  "sourcePath": "/Users/rodrigotaipe/Desktop/themis/contracts/Counter.sol",
  "compiler": {
    "name": "solc",
    "version": "0.8.10+commit.fc410830.Emscripten.clang"
  },
  "schemaVersion": "3.4.3",
  "updatedAt": "2021-11-25T02:31:27.444Z",
  "devdoc": {
    "kind": "dev",
    "methods": {},
    "version": 1
  },
  "userdoc": {
    "kind": "user",
    "methods": {},
    "version": 1
  }
}